:060000000A128A110C280F
:10000800FE00030EF0000A08F1000A128A15702F8C
:100018000A128A110F2883134930840067300A12A4
:100028008A11F8270A128A1183010A128A111C28D8
:100038000A128A1191270A128A1183120313C50121
:10004800C601C60AC701C801C80A831203130618E5
:100058002E282F2898280130B5003508C7071830F2
:100068004702031C382839283A28C7010A128A157A
:1000780080270A128A118312031347080A128A1565
:10008800BE270A128A1183120313BB00D030F20074
:100098000030F3000A128A1592270A128A110230D8
:1000A800F2000030F3000A128A1592270A128A1108
:1000B800831203133B08B500B6013508F200360871
:1000C800F3000A128A1592270A128A110A128A154F
:1000D80077270A128A11D130F2000030F3000A1291
:1000E8008A1592270A128A110030F200F3000A12C8
:1000F8008A1163270A128A11720883120313CE0029
:100108000A128A1589270A128A11033083120313E7
:10011800B7000830B6007630B500B50B9128B60B9D
:100128009128B70B912800008312031386189D2885
:100138009E2808290130B5003508C8071F30480235
:10014800031CA728A828AA28C801C80A0A128A15C1
:1001580080270A128A118312031348080A128A1583
:10016800BE270A128A1183120313BC00D030F20092
:100178000030F3000A128A1592270A128A110330F6
:10018800F2000030F3000A128A1592270A128A1127
:10019800831203133C08B500B6013508F20036088F
:1001A800F3000A128A1592270A128A110A128A156E
:1001B80077270A128A11D130F2000030F3000A12B0
:1001C8008A1592270A128A110030F200F3000A12E7
:1001D8008A1163270A128A11720883120313CD0049
:1001E8000A128A1589270A128A1103308312031307
:1001F800B7000830B6007630B500B50B0129B60B4C
:100208000129B70B012900008312031306190D29D0
:100218000E2978290130B5003508C6070C3046028A
:10022800031C172918291A29C601C60A0A128A1591
:1002380080270A128A118312031346080A128A15A4
:10024800BE270A128A1183120313BD00D030F200B0
:100258000030F3000A128A1592270A128A11053013
:10026800F2000030F3000A128A1592270A128A1146
:10027800831203133D08B500B6013508F2003608AD
:10028800F3000A128A1592270A128A110A128A158D
:1002980077270A128A11D130F2000030F3000A12CF
:1002A8008A1592270A128A110030F200F3000A1206
:1002B8008A1163270A128A11720883120313CC0069
:1002C8000A128A1589270A128A1103308312031326
:1002D800B7000830B6007630B500B50B7129B60BFB
:1002E8007129B70B712900008312031386197D2920
:1002F8007E29E7290130B5003508C5076330450276
:10030800031C872988298929C5010A128A1580278B
:100318000A128A118312031345080A128A15BE2786
:100328000A128A1183120313BE00D030F200003083
:10033800F3000A128A1592270A128A110630F2006F
:100348000030F3000A128A1592270A128A118312C2
:1003580003133E08B500B6013508F2003608F3006D
:100368000A128A1592270A128A110A128A15772701
:100378000A128A11D130F2000030F3000A128A15ED
:1003880092270A128A110030F200F3000A128A1129
:1003980063270A128A11720883120313CB000A1208
:1003A8008A1589270A128A11033083120313B700AA
:1003B8000830B6007630B500B50BE029B60BE02959
:1003C800B70BE02900000A128A1580270A128A1141
:1003D8005130F2000030F3000A128A1592270A12EF
:1003E8008A110030F200F3000A128A1163270A12F8
:1003F8008A11730883120313CA007208C9000A120B
:100408008A1589270A128A11033083120313B70049
:100418000830B6007630B500B50B102AB60B102A96
:10042800B70B102A00000A128A1580270A128A11AF
:10043800D030F2000030F3000A128A1592270A120F
:100448008A110030F200F3000A128A1592270A1264
:100458008A110A128A1577270A128A11D130F200F6
:100468000030F3000A128A1592270A128A11003006
:10047800F200F3000A128A1163270A128A1172081D
:1004880083120313D0000A128A1589270A128A11C7
:100498000A128A1580270A128A11D030F200003019
:1004A800F3000A128A1592270A128A110130F20003
:1004B8000030F3000A128A1592270A128A110A12CA
:1004C8008A1577270A128A11D130F2000030F3001A
:1004D8000A128A1592270A128A110030F200F300D4
:1004E8000A128A1163270A128A11720883120313E7
:1004F800CF000A128A1589270A128A110A128A1548
:1005080080270A128A11D030F2000030F3000A1254
:100518008A1592270A128A110230F2000030F3007D
:100528000A128A1592270A128A110A128A1577273F
:100538000A128A11D130F2000030F3000A128A152B
:1005480092270A128A110030F200F3000A128A1167
:1005580063270A128A11720883120313CE000A1243
:100568008A1589270A128A110A128A1580270A12FF
:100578008A11D030F2000030F3000A128A1592274F
:100588000A128A110330F2000030F3000A128A15A9
:1005980092270A128A110A128A1577270A128A11D3
:1005A800D130F2000030F3000A128A1592270A129D
:1005B8008A110030F200F3000A128A1163270A1226
:1005C8008A11720883120313CD000A128A1589272B
:1005D8000A128A110A128A1580270A128A11D03043
:1005E800F2000030F3000A128A1592270A128A11C3
:1005F8000530F2000030F3000A128A1592270A1219
:100608008A110A128A1577270A128A11D130F20044
:100618000030F3000A128A1592270A128A11003054
:10062800F200F3000A128A1163270A128A1172086B
:1006380083120313CC000A128A1589270A128A1119
:100648000A128A1580270A128A11D030F200003067
:10065800F3000A128A1592270A128A110630F2004C
:100668000030F3000A128A1592270A128A110A1218
:100678008A1577270A128A11D130F2000030F30068
:100688000A128A1592270A128A110030F200F30022
:100698000A128A1163270A128A1172088312031335
:1006A800CB000A128A1589270A128A1183120313AA
:1006B80050080A128A15BE270A128A1183120313D8
:1006C800BF004F080A128A15BE270A128A11831220
:1006D8000313C0004E080A128A15BE270A128A118F
:1006E80083120313C1001430A4004108B500B601F9
:1006F8003508A5003608A6004008B700B801370835
:10070800A7003808A8003F08B900BA013908A900AD
:100718003A08AA005A300A128A11E6230A128A11E4
:10072800831203134D080A128A15BE270A128A116A
:1007380083120313C2004C080A128A15BE270A1234
:100748008A1183120313C3004B080A128A15BE27A5
:100758000A128A1183120313C4000B30A400440840
:10076800B500B6013508A5003608A6004308B7004D
:10077800B8013708A7003808A8004208B900BA012C
:100788003908A9003A08AA0051300A128A11E6234A
:100798000A128A110A128A119B250A128A11033039
:1007A80083120313B7000830B6007630B500B50BD6
:1007B800DB2BB60BDB2BB70BDB2B000029280A122F
:1007C8008A110C2883120313B3002530AE00AD2C18
:1007D800253034060319F12BF22BFC2B3308840047
:1007E8003408831380000130AB002B08B307AD2C0D
:1007F800AF010130A407FF30240784000A128A11D0
:100808003D270A128A11B400AB00AC012C08003A4B
:1008180003190F2CAD2C2B08003A0319BD2C643A90
:1008280003191A2C0D3A03191A2CAD2C2E08840022
:1008380083130008B100840A0008B2000230AB003C
:100848002B08AE07B21F292C2A2C332C0330AB00FF
:100858002B08AF04B109B209B10A0319B20AB401ED
:10086800B40A3408AB002B07013E84000A128A112F
:100878003D270A128A11AC000A128A113D270A1272
:100888008A11AD002D083202031D4C2C2C083102B0
:1008980003184F2C502C512C5B2C0130AB002B082B
:1008A800B40705303406031D5A2C5B2C352C2F0851
:1008B80003390319602C612C6A2C330884002D300D
:1008C800831380000130AB002B08B3073408B00055
:1008D800A42C0A30A0000030A1003008AB002B0780
:1008E800013E84000A128A113D270A128A11F20079
:1008F8000A128A113D270A128A11F3003208F500FC
:100908003108F4000A128A1139260A128A1173086A
:1009180083120313A3007208A2000A128A11BF26C9
:100928000A128A11831203132008303EB4003308D8
:1009380084003408831380000130AB002B08B30710
:10094800FF30AB002B08B007300A031DAC2CAD2CD0
:100958006D2C0130A407FF30240784000A128A1185
:100968003D270A128A11B4003408031DBC2CBD2C83
:10097800EC2B3308840083138001080008307206CA
:100988007304031DC82CC92CCE2C70308316031396
:100998008F042F2D043072067304031DD42CD52C1C
:1009A800DC2C831603130F088F3960388F002F2D26
:1009B800023072067304031DE22CE32CEA2C831622
:1009C80003130F088F3950388F002F2D72037304CB
:1009D800031DEF2CF02CF72C831603130F088F3907
:1009E80040388F002F2DF4307206031DFF2C73033F
:1009F800031DFF2C002D072D831603130F088F39B5
:100A080030388F002F2DFA3072067304031D0D2D18
:100A18000E2D152D831603130F088F3920388F00DC
:100A28002F2D7D3072067304031D1B2D1C2D232DC5
:100A3800831603130F088F3910388F002F2D1F309E
:100A480072067304031D292D2A2D2F2D8F3083162E
:100A580003138F052F2D831603130F14080000307E
:100A680083120313A3000030A2000030A10000305D
:100A7800A00075087404730472040319442D452DED
:100A8800922DA401A40A552D0130FA000310F20D8D
:100A9800F30DF40DF50DFA0B4A2D0130FA007A0822
:100AA800A407F51F582D592D482D0130FA000310C1
:100AB800A00DA10DA20DA30DFA0B5B2D75087902EF
:100AC800031D702D74087802031D702D73087702BA
:100AD800031D702D72087602031C732D742D832D4F
:100AE8007208F6027308031C730FF7027408031CDC
:100AF800740FF8027508031C750FF90220140130F1
:100B08000310F50CF40CF30CF20CFF3E031D842DBE
:100B18000130A402031D912D922D592D2308F500B3
:100B28002208F4002108F3002008F2000800F6016A
:100B3800F60A01300A128A11BE270A128A111D30DC
:100B4800F5008030F6000A128A117D260A128A11F1
:100B5800F601F60A02300A128A11BE270A128A1111
:100B6800113083120313A4004A08A6004908A500FF
:100B780063300A128A11E6230A128A116330F500DB
:100B88000030F6000A128A117D260A128A110630F0
:100B9800F60001300A128A11BE270A128A115A3049
:100BA800F5000030F6000A128A117D260A128A1111
:100BB8000630F60002300A128A11BE270A128A117C
:100BC8005130F5000030F6000A128A117D260A120B
:100BD8008A11080000300A128A1564270A128A113D
:100BE8003430F700F130F600F60BF82DF70BF82D3E
:100BF800FD2D30300A128A11DE270A128A110D30B3
:100C0800F700FB30F600F60B072EF70B072E0C2E1D
:100C180030300A128A11DE270A128A111D30F700B5
:100C28009130F600F60B162EF70B162E30300A12FE
:100C38008A11DE270A128A113C300A128A11DE272D
:100C48000A128A110C300A128A11DE270A128A1136
:100C580001300A128A11DE270A128A1106300A1296
:100C68008A11DE270A128A110800F701F8017208B2
:100C780073040319402E412E782EF901F90A4F2EDC
:100C880001300310F20DF30DFF3E031D452E013018
:100C9800F6007608F907F31F522E532E442E013022
:100CA8000310F70DF80DFF3E031D542E730875024F
:100CB800031D602E72087402031C632E642E6B2EB3
:100CC8007208F4027308031CF503F5027714013067
:100CD8000310F30CF20CFF3E031D6C2E0130F902D9
:100CE800031D772E782E532E7808F3007708F2002C
:100CF8000800FA01FB01A22E7A087507F8007608A9
:100D0800F7000318F70AFA1F8A2EF7037708F90085
:100D1800790883120313FF00780884000A128A11E5
:100D280033270A128A110A128A15D4270A128A113D
:100D38000130FA070318FB0A0030FB077A08750729
:100D4800F8007608F7000318F70AFA1FAC2EF70325
:100D58007708F900790883120313FF0078088400E4
:100D68000A128A1133270A128A11003A031DBD2E6E
:100D7800BE2E802E080083120313200821040319B5
:100D8800C62EC72EF62EFB01FB0AD52E0130031006
:100D9800A00DA10DFF3E031DCB2E0130FA007A08ED
:100DA800FB07A11FD82ED92ECA2E21082302031D06
:100DB800DF2E20082202031CE22EE32EE92E200853
:100DC800A2022108031CA303A30201300310A10CF3
:100DD800A00CFF3E031DEA2E0130FB02031DF52E79
:100DE800F62ED92E2308A1002208A00008002830DA
:100DF80083120313940083160313910183120313C0
:100E08002508A9002608AA002708AB002808AC0076
:100E180002300310A90DAA0DAB0DAC0DFF3E031D4A
:100E28000D2F2C08F5002B08F4002A08F3002908D8
:100E3800F2000030F9007A30F8001230F700003084
:100E4800F6000A128A1133250A128A117208FF3E27
:100E58008316031393009401871507160800FF1BD8
:100E68003D2F83137F1883170008840A0319FF0A8C
:100E7800080007308A000408840A82070034013415
:100E880000340A34003464340034E8340334103451
:100E98002734253464342F34253464342F342534EE
:100EA80064340034253464343A34253464343A34B0
:100EB800253464340034533431343A3400340A125B
:100EC8008A159C270A128A118316031391150A1290
:100ED8008A159C270A128A11831203131308F40037
:100EE800F5017408F6007508F7000A128A159C27A0
:100EF8000A128A1172037304031D832F842F882F0B
:100F08008316031391128B2F831603139116111650
:100F18007708F3007608F20008000830F200003085
:100F2800F3000A128A11C2240A128A110A128A15B7
:100F3800EA270A128A11003083120313A80001302D
:100F4800A7008630A600A030A5000A128A11FB2649
:100F58000A128A110A128A11EE250A128A110A1235
:100F68008A1561270A128A110A128A156A270A1233
:100F78008A110800F7007703031DC32FC42FCE2F53
:100F880076087F3EF80078080A128A11DE270A12CE
:100F98008A11DD2F02307706031DD32FD42FDD2FC2
:100FA8007608BF3EF80078080A128A11DE270A126E
:100FB8008A110800F50083120313091075080A1234
:100FC8008A1564270A128A118312031389140B30B5
:100FD800F4006230F300F30BEF2FF40BEF2F000057
:100FE800831203138910080064008001840A040630
:080FF800031900340406F92F6F
:101EC2008B170B170800F2007208831203138800A5
:101ED2000800831603138113FF3095000800710870
:101EE2008A00700E8300FE0E7E0E09000A128A1509
:101EF2009C270A128A1583160313911408000A12EA
:101F02008A159C270A128A158316031311140800D6
:101F12000A128A159C270A128A15831603131115B1
:101F220008000A128A159C270A128A15720883125F
:101F3200031393000800831603131419A12FA22F71
:101F42009C2F11081F39031DA72FA82F9C2F0800B3
:101F5200F500F401751CAE2FAF2FB32F7208F300FA
:101F62007308F4070310F20D0310F50C7508031D36
:101F7200BB2FBC2FAB2F74080800F8000F30780578
:101F8200F6000A30F2007808F70004300310F70C6C
:101F9200FF3E031DC72F77080A128A15A9270A12C6
:101FA2008A1576070800F4008312031309147408D3
:101FB2000A128A1564270A128A15831203138914D6
:101FC2001A30F300F30BE32F00008312031389107E
:101FD2000800013083160317880089018316031352
:101FE2008501FF308600FF30870088018901831256
:0E1FF20003138501860187018801890108001B
:08400000FF3FFF3FFF3FFF3FC0
:04400E00D420FF3F7C
:00000001FF
