:060000000A128A110C280F
:10000800FE00030EF5000A08F6000A128A111F29DD
:100018000A128A110F28F701F80183010A128A11BE
:100028008A29831203131F141A3083120313A5009D
:10003800F730A400A40B1E28A50B1E282328831222
:10004800031320082104031D2A282B282E28C33037
:100058009F05752820032104031D332834283928D7
:100068001F08C33904389F00752802302006210470
:10007800031D3F28402845281F08C33908389F001A
:100088007528033020062104031D4B284C285128CD
:100098001F08C3390C389F00752804302006210436
:1000A800031D572858285D281F08C33910389F009A
:1000B8007528053020062104031D63286428692853
:1000C8001F08C33914389F007528063020062104FC
:1000D800031D6F28702875281F08C33918389F001A
:1000E8007528831603139F121F128312031322030A
:1000F8002304031D8028812884283F309F05A228D7
:10010800043022062304031D8A288B2890281F0800
:100118003F3940389F00A2280830220623040319DB
:10012800962897289E28143022062304031D9D280C
:100138009E28A2281F083F3980389F008316031382
:100148000C17831203130C13831603139F13080051
:1001580008308312031320062104031DB428B52890
:10016800BA287030831603138F041B290430200625
:100178002104031DC028C128C828831603130F08AB
:100188008F3960388F001B29023020062104031D97
:10019800CE28CF28D628831603130F088F39503856
:1001A8008F001B2920032104031DDB28DC28E328FA
:1001B800831603130F088F3940388F001B29F4303A
:1001C8002006031DEB282103031DEB28EC28F32848
:1001D800831603130F088F3930388F001B29FA3024
:1001E80020062104031DF928FA2801298316031380
:1001F8000F088F3920388F001B297D3020062104F5
:10020800031D072908290F29831603130F088F399F
:1002180010388F001B291F3020062104031D1529C3
:1002280016291B298F30831603138F051B29831664
:1002380003130F140800831203130C1F2429252904
:100248002F290A128A110A220A128A1170088312A7
:10025800031388000C138C1D3229332983291412A7
:10026800141B372938293C29941F3B293C2941294B
:100278001308F80014139413141683160313941A0E
:1002880046294729612914194A294B2961298312CA
:1002980003131308F8008C11141683160313141C87
:1002A8005629572951298312031313088800A630A9
:1002B800F400F40B5D2900008029941A642965294B
:1002C8008029141D682969298029831203131308BA
:1002D800F8008316031314108312031308089300FD
:1002E8001416A630F400F40B7729000083160313C4
:1002F80014187F2980297A29831203138C11760810
:100308008A00750E8300FE0E7E0E09000A128A11FD
:10031800B5210A128A11831203139F18942995296B
:10032800A3291A3083120313A700F730A600A60BDF
:100338009B29A70B9B29A029831203139F1406301E
:1003480083120313A8001330A700AD30A600A60B34
:10035800AB29A70BAB29A80BAB298F290A128A1145
:100368000C28083083120313A0000030A1000A12E1
:100378008A11AC200A128A110A128A11F6210A126D
:100388008A1150300A128A11DA210A128A110030B1
:1003980083120313A000A1000830A2000030A300BC
:1003A8000A128A1115200A128A11080083120313EF
:1003B800A00020088316031393003630831203131A
:1003C8009400803083160313940001309100871540
:1003D80007168B170B17831203138C11831603133D
:1003E8008C150800013083160317880089018316CD
:1003F80003138601FF3087008801890183120313E4
:100408008501860187018801890108008312031389
:100418001E08F200F3017208F0007308F1000800EA
:08400000FF3FFF3FFF3FFF3FC0
:04400E00D420FF3F7C
:00000001FF
